{
	"data": {
		"bytecode": {
			"linkReferences": {},
			"object": "6080604052348015600e575f80fd5b5060015f81905550610239806100235f395ff3fe608060405234801561000f575f80fd5b506004361061003f575f3560e01c806312065fe0146100435780637e62eab814610061578063f04991f01461007d575b5f80fd5b61004b610099565b60405161005891906100e3565b60405180910390f35b61007b6004803603810190610076919061012a565b6100a1565b005b6100976004803603810190610092919061012a565b6100b6565b005b5f8054905090565b805f546100ae9190610182565b5f8190555050565b805f546100c391906101c2565b5f8190555050565b5f819050919050565b6100dd816100cb565b82525050565b5f6020820190506100f65f8301846100d4565b92915050565b5f80fd5b610109816100cb565b8114610113575f80fd5b50565b5f8135905061012481610100565b92915050565b5f6020828403121561013f5761013e6100fc565b5b5f61014c84828501610116565b91505092915050565b7f4e487b71000000000000000000000000000000000000000000000000000000005f52601160045260245ffd5b5f61018c826100cb565b9150610197836100cb565b925082820390508181125f8412168282135f8512151617156101bc576101bb610155565b5b92915050565b5f6101cc826100cb565b91506101d7836100cb565b92508282019050828112155f8312168382125f8412151617156101fd576101fc610155565b5b9291505056fea26469706673582212206619e737081fa4fdd335905a4210dcb0e4bb3dea642de64936c89062eaaf91e864736f6c634300081a0033",
			"opcodes": "PUSH1 0x80 PUSH1 0x40 MSTORE CALLVALUE DUP1 ISZERO PUSH1 0xE JUMPI PUSH0 DUP1 REVERT JUMPDEST POP PUSH1 0x1 PUSH0 DUP2 SWAP1 SSTORE POP PUSH2 0x239 DUP1 PUSH2 0x23 PUSH0 CODECOPY PUSH0 RETURN INVALID PUSH1 0x80 PUSH1 0x40 MSTORE CALLVALUE DUP1 ISZERO PUSH2 0xF JUMPI PUSH0 DUP1 REVERT JUMPDEST POP PUSH1 0x4 CALLDATASIZE LT PUSH2 0x3F JUMPI PUSH0 CALLDATALOAD PUSH1 0xE0 SHR DUP1 PUSH4 0x12065FE0 EQ PUSH2 0x43 JUMPI DUP1 PUSH4 0x7E62EAB8 EQ PUSH2 0x61 JUMPI DUP1 PUSH4 0xF04991F0 EQ PUSH2 0x7D JUMPI JUMPDEST PUSH0 DUP1 REVERT JUMPDEST PUSH2 0x4B PUSH2 0x99 JUMP JUMPDEST PUSH1 0x40 MLOAD PUSH2 0x58 SWAP2 SWAP1 PUSH2 0xE3 JUMP JUMPDEST PUSH1 0x40 MLOAD DUP1 SWAP2 SUB SWAP1 RETURN JUMPDEST PUSH2 0x7B PUSH1 0x4 DUP1 CALLDATASIZE SUB DUP2 ADD SWAP1 PUSH2 0x76 SWAP2 SWAP1 PUSH2 0x12A JUMP JUMPDEST PUSH2 0xA1 JUMP JUMPDEST STOP JUMPDEST PUSH2 0x97 PUSH1 0x4 DUP1 CALLDATASIZE SUB DUP2 ADD SWAP1 PUSH2 0x92 SWAP2 SWAP1 PUSH2 0x12A JUMP JUMPDEST PUSH2 0xB6 JUMP JUMPDEST STOP JUMPDEST PUSH0 DUP1 SLOAD SWAP1 POP SWAP1 JUMP JUMPDEST DUP1 PUSH0 SLOAD PUSH2 0xAE SWAP2 SWAP1 PUSH2 0x182 JUMP JUMPDEST PUSH0 DUP2 SWAP1 SSTORE POP POP JUMP JUMPDEST DUP1 PUSH0 SLOAD PUSH2 0xC3 SWAP2 SWAP1 PUSH2 0x1C2 JUMP JUMPDEST PUSH0 DUP2 SWAP1 SSTORE POP POP JUMP JUMPDEST PUSH0 DUP2 SWAP1 POP SWAP2 SWAP1 POP JUMP JUMPDEST PUSH2 0xDD DUP2 PUSH2 0xCB JUMP JUMPDEST DUP3 MSTORE POP POP JUMP JUMPDEST PUSH0 PUSH1 0x20 DUP3 ADD SWAP1 POP PUSH2 0xF6 PUSH0 DUP4 ADD DUP5 PUSH2 0xD4 JUMP JUMPDEST SWAP3 SWAP2 POP POP JUMP JUMPDEST PUSH0 DUP1 REVERT JUMPDEST PUSH2 0x109 DUP2 PUSH2 0xCB JUMP JUMPDEST DUP2 EQ PUSH2 0x113 JUMPI PUSH0 DUP1 REVERT JUMPDEST POP JUMP JUMPDEST PUSH0 DUP2 CALLDATALOAD SWAP1 POP PUSH2 0x124 DUP2 PUSH2 0x100 JUMP JUMPDEST SWAP3 SWAP2 POP POP JUMP JUMPDEST PUSH0 PUSH1 0x20 DUP3 DUP5 SUB SLT ISZERO PUSH2 0x13F JUMPI PUSH2 0x13E PUSH2 0xFC JUMP JUMPDEST JUMPDEST PUSH0 PUSH2 0x14C DUP5 DUP3 DUP6 ADD PUSH2 0x116 JUMP JUMPDEST SWAP2 POP POP SWAP3 SWAP2 POP POP JUMP JUMPDEST PUSH32 0x4E487B7100000000000000000000000000000000000000000000000000000000 PUSH0 MSTORE PUSH1 0x11 PUSH1 0x4 MSTORE PUSH1 0x24 PUSH0 REVERT JUMPDEST PUSH0 PUSH2 0x18C DUP3 PUSH2 0xCB JUMP JUMPDEST SWAP2 POP PUSH2 0x197 DUP4 PUSH2 0xCB JUMP JUMPDEST SWAP3 POP DUP3 DUP3 SUB SWAP1 POP DUP2 DUP2 SLT PUSH0 DUP5 SLT AND DUP3 DUP3 SGT PUSH0 DUP6 SLT ISZERO AND OR ISZERO PUSH2 0x1BC JUMPI PUSH2 0x1BB PUSH2 0x155 JUMP JUMPDEST JUMPDEST SWAP3 SWAP2 POP POP JUMP JUMPDEST PUSH0 PUSH2 0x1CC DUP3 PUSH2 0xCB JUMP JUMPDEST SWAP2 POP PUSH2 0x1D7 DUP4 PUSH2 0xCB JUMP JUMPDEST SWAP3 POP DUP3 DUP3 ADD SWAP1 POP DUP3 DUP2 SLT ISZERO PUSH0 DUP4 SLT AND DUP4 DUP3 SLT PUSH0 DUP5 SLT ISZERO AND OR ISZERO PUSH2 0x1FD JUMPI PUSH2 0x1FC PUSH2 0x155 JUMP JUMPDEST JUMPDEST SWAP3 SWAP2 POP POP JUMP INVALID LOG2 PUSH5 0x6970667358 0x22 SLT KECCAK256 PUSH7 0x19E737081FA4FD 0xD3 CALLDATALOAD SWAP1 GAS TIMESTAMP LT 0xDC 0xB0 0xE4 0xBB RETURNDATASIZE 0xEA PUSH5 0x2DE64936C8 SWAP1 PUSH3 0xEAAF91 0xE8 PUSH5 0x736F6C6343 STOP ADDMOD BYTE STOP CALLER "
		},
		"gasEstimates": {
			"creation": {
				"codeDepositCost": "113800",
				"executionCost": "22270",
				"totalCost": "136070"
			},
			"external": {
				"deposit(int256)": "infinite",
				"getBalance()": "2410",
				"withdraw(int256)": "infinite"
			}
		},
		"methodIdentifiers": {
			"deposit(int256)": "f04991f0",
			"getBalance()": "12065fe0",
			"withdraw(int256)": "7e62eab8"
		}
	},
	"abi": [
		{
			"inputs": [],
			"stateMutability": "nonpayable",
			"type": "constructor"
		},
		{
			"inputs": [
				{
					"internalType": "int256",
					"name": "amt",
					"type": "int256"
				}
			],
			"name": "deposit",
			"outputs": [],
			"stateMutability": "nonpayable",
			"type": "function"
		},
		{
			"inputs": [],
			"name": "getBalance",
			"outputs": [
				{
					"internalType": "int256",
					"name": "",
					"type": "int256"
				}
			],
			"stateMutability": "view",
			"type": "function"
		},
		{
			"inputs": [
				{
					"internalType": "int256",
					"name": "amt",
					"type": "int256"
				}
			],
			"name": "withdraw",
			"outputs": [],
			"stateMutability": "nonpayable",
			"type": "function"
		}
	]
}